:03000000020100FA
:03000B00020050A0
:10005000C28C0A758C00758A00D2AFD2A9D28C32BC
:1001000031C6C294D2AFD2A974805103513190024A
:10011000425123513174C05103513190024D51234A
:1001200031A931A9D294758901758C00758A00D2E4
:100130008CA29050FCC294C28CAB8CAC8A7480515F
:1001400003513190025A5123513174C0510351313E
:100150009002685123EAC4540F319F24305112EAAF
:10016000540F319F2430511274205112EBC4540F9C
:10017000319F24305112EB540F319F24305112EC37
:10018000C4540F319F24305112EC540F319F24304E
:10019000511231A931A931A931A931A9020108C3EC
:1001A000940A40022407240A227E2831B2DEFC028F
:1001B00001C5758910758D3C758BB0D28E308FFD61
:1001C000C28EC28F222275A038C280C281D28251D3
:1001D00031C282513175A00CC280C281D2825131AC
:1001E000C282513175A001C280C281D2825131C216
:1001F00082513175A006C280C281D2825131C28241
:10020000513122F5A0C280C281D2825131C28251C5
:100210003122F5A0D280C281D2825131C2825131C5
:09022000513122C0E0E4936005B5
:100229005112A380F7D0E022C000C001780179FF04
:10023900D9FED8FAD001D00022546F67676C6520C7
:10024900535731006966204C454420676C6F7773BA
:10025900005265616374696F6E2054696D6500436E
:090269006F756E742069732000AA
:00000001FF
