:03000000020100FA
:100100007928D29431513151D9FA7928C294316C7D
:10011000316CD9FA0201007E013120DEFC0201338C
:10012000758911758CF1758A89D28C308DFDC28CE0
:10013000C28D22227B01313DDBFC02015075891109
:10014000758CF2758AFBD28C308DFDC28CC28D22EB
:1001500022758911758D3C758BB0D28ED280311786
:10016000C2803117308FF5C28EC28F22758911750A
:100170008D3C758BB0D28ED2803134C28031343018
:100180008FF5C28EC28F22758911758D3C758BB02B
:0A019000D28E308FFDC28EC28F2286
:00000001FF
