:030000000210FEED
:0C10FE00787FE4F6D8FD7581540211459E
:10140700566F6C742E3A2000206D56004176673A6D
:101417002000414C4552542120202020202020200C
:0314270020200082
:10144000C100060A000000000000061000002E0087
:0214500020007A
:10138700E4F5A0C282C280C2817F38FE12145312D4
:1013970013E37F067E001214531213E37F0C7E00C3
:1013A7001214531213E37F017E001214531213E336
:0713B7007F807E0002145349
:0413E3007F047E0005
:1013E700E4FDFCC3ED9FEC9E5015E4FBFA0BBB003C
:0F13F700010ABA01F8BB7EF50DBD00010C80E4C0
:0114060022C3
:10104500E4FFFE7D207C411208F8120B557B007AE7
:0310550000790A15
:101058008E4D8F4E8B4F8A5089517C277D10120CF4
:1010680023EF2430120BEFAE4DAF4E7C277D1012CC
:101078000C237E037FE8CFCDCFCECCCE120C23EF4E
:101088002430AB4FAA50A951900001120C01AE4D6B
:10109800AF4E7C037DE8120C237E007F64CFCDCF5A
:1010A800CECCCE120C23EF2430AB4FAA50A95190CE
:1010B8000002120C01AE4DAF4E7C007D64120C2371
:1010C8007E007F0ACFCDCFCECCCE120C23EF2430BA
:1010D800AB4FAA50A951900003120C01AE4DAF4E70
:1010E8007C007D0A120C23ED2430AB4FAA50A95185
:0610F800900004020C014F
:10145300C280C281D2828FA07F0A7E001213E7C2AC
:021463008222E3
:10146500D280C281D2828FA07F0A7E001213E7C28A
:021475008222D1
:1013BE008B4D8A4E894FAB4DAA4EA94F120BD6605C
:1013CE0013054FE54F7002054E14F9120BD6FF129E
:0513DE00146580E2220D
:0C14870075C33F43B104D2AF43C34F22F2
:081258008F548E538D528C510E
:10126000C2007810120CBCE48FC53000FDA916C274
:1012700000AF54AE53AD52AC517808120CBC8FC5C0
:101280003000FDAB16C200E554FF8FC53000FDAD48
:1012900016EB7B00FA7E00E97810C333CE33CED84C
:1012A000F92BFFEE3AFE7C00EF2DFFEC3EFE33956E
:0312B000E0FDFC62
:0112B3002218
:03004B0002142A72
:10142A00C0E0C0D0E5C454F02480700585C516D24A
:06143A0000D0D0D0E0322A
:03149300D28622DC
:0211F300AB0748
:1011F500E4F54CF54B754A01F549EF75F010A47E01
:10120500005470FFEE3395E0FDFCEF4480FFED7870
:1012150008120CCF8F508E4F8D4E8C4DE54C2550BE
:10122500FFE54B354FFEE54A354EFDE549354DFCAD
:10123500C2861212588F488E478D468C45D286E558
:1012450048F548E5475403F547E4F546F545AE4707
:02125500AF48A0
:011257002274
:101477007F807E001214537BFF7A1479190213BE02
:08118A00AF40AE3FAD3EAC3DAD
:081192008F488E478D468C4505
:10119A007F357E297DA57C3EAB48AA47A946A8454E
:1011AA001208F88F4C8E4B8D4A8C49E4FFFE7D2045
:1011BA007C41AB4CAA4BA94AA8491208F8120B5514
:1011CA008E088F091210527FC07E00121453850CAC
:1011DA0010850D11850E137BFF7A1479131213BE35
:0911EA007B007A0079100213BEAB
:0F12B400120A018F408E3F8D3E8C3DAF38AE3712
:1012C300AD07AC06E4120B1C7B357A2979A5783E71
:1012D3001208F88F488E478D468C45AB48AA47A91C
:1012E30046A8451210457F807E00121453850C10CA
:0F12F300850D11850E137B007A0079100213BE52
:10134800AD07AC06E4120B1C7B357A2979A5783EEB
:101358001208F88F488E478D468C45AB48AA47A996
:1013680046A8451210457F857E00121453850C103F
:0F137800850D11850E137B007A0079100213BECC
:10130200AD07AC06E4120B1C7B357A2979A5783E31
:101312001208F88F488E478D468C45E4FFFE7D20EB
:101322007C41AB48AA47A946A84512104C7F8A7E49
:1013320000121453850C10850D11850E137B007A53
:061342000079100213BE49
:100CE200E4F525F526F527F528F540F53FF53EF51F
:100CF2003DF544F543F542F541C2871214871214BB
:100D020093121387E4F521F5227F071211F3E522EE
:100D120025E02429F8A60608A6077F017E00121303
:100D2200E7AB44AA43A942A841C000C001C002C027
:100D320003E52225E02429F8E6FC08E6FDE4120B8F
:100D42001CD003D002D001D0001208078F448E437A
:100D52008D428C410522E52270020521C3940AE5E9
:100D6200216480948040A2E4FBFA79207841AF4468
:100D7200AE43AD42AC411212B4AF3AAE391213488F
:100D8200AF3CAE3B12130212118A7FE87E031213AC
:100D9200E7E4F544F543F542F541F523F524AF24A4
:100DA200EF25E0242BF8E6FC08E6FDEF25E02429F8
:100DB200F8A60408A605AB44AA43A942A841C0006C
:100DC200C001C002C003E52425E02429F8E6FC089E
:100DD200E6FDE4120B1CD003D002D001D0001208B1
:100DE200078F448E438D428C410524E52470020511
:100DF200236409452370A77F071211F38E3B8F3CB2
:100E0200E4FFFE7DC07C40AB40AA3FA93EA83D1254
:100E12000807C004C005C006C007AC3BAD3CE412E5
:100E22000B1CA804A905AA06AB07D007D006D0055B
:100E3200D004120A9E600840067F01C00780047F2A
:100E420000C007E4FFFE7DC07CC0AB40AA3FA93EC4
:100E5200A83D120807C004C005C006C007AC3BADE0
:100E62003CE4120B1CA804A905AA06AB07D007D0C4
:100E720006D005D004120A9E50047E0180027E0034
:100E8200D0E04E7003020F7F121477758901752529
:100E920000752601D3E5269470E525648094884088
:100EA20003020D93758CF1758A89D28C308DFDC247
:100EB2008CC28DB287AE25AF267C027D1C120C78C7
:100EC200ED4C6003020F74F544F543F542F541F52C
:100ED20023F524AF24EF25E0242BF8E6FC08E6FDF9
:100EE200EF25E02429F8A60408A605AB44AA43A9E5
:100EF20042A841C000C001C002C003E52425E0248D
:100F020029F8E6FC08E6FDE4120B1CD003D002D05F
:100F120001D0001208078F448E438D428C41052474
:100F2200E524700205236409452370A77F07121187
:100F3200F38E3B8F3CAB44AA43A942A841C000C0F8
:100F420001C002C003AC3BAD3CE4120B1CD003D089
:100F520002D001D0001208078F448E438D428C418B
:100F6200E4FBFA79207841120A018F408E3F8D3ED0
:100F72008C3D0526E52670020525020E96E4FFFE4D
:100F82007DC07C40AB40AA3FA93EA83D120807C0E5
:100F920004C005C006C007AC3BAD3CE4120B1CA864
:100FA20004A905AA06AB07D007D006D005D00412C3
:100FB2000A9E4003020D93E4FFFE7DC07CC0AB405D
:100FC200AA3FA93EA83D120807C004C005C006C03A
:100FD20007AC3BAD3CE4120B1CA804A905AA06AB66
:100FE20007D007D006D005D004120A9E6002500333
:100FF200020D93AB44AA43A942A841C000C001C05C
:1010020002C003AC3BAD3CE4120B1CD003D002D0B7
:1010120001D0001208078F448E438D428C41E4FBBD
:10102200FA792078411212B4AF3AAE39121348AFAE
:101032003CAE3B12130212118A7FE87E031213E7C1
:03104200020D9309
:10080000020BC1E86480F8E933E83360110460F05A
:10081000ED33EC337009E8FCE9FDEAFEEBFF22045E
:1008200060DED3EB9FEA9EE99DE8C2E78CF0C2F759
:1008300095F0400CE8CCF8E9CDF9EACEFAEBCFFB25
:10084000120B8C85D0F05804700320D5B3E80470E7
:10085000075002B2D5020BCB92D5EC0460F7E4CC82
:10086000C0E0C398F8603B94186008400DD0E0FBEE
:10087000020BA3E4FBFAC9FC8028E830E406E4C9D3
:10088000FBE4CAFCE830E305E4C9CACBFCE8540742
:100890006010F8C3E913F9EA13FAEB13FBEC13FC4D
:1008A000D8F130F52FC3E49CFCEF9BFFEE9AFEEDF0
:1008B00099FDD0E0FBEF4E4D4C701222DB03020B92
:1008C000C8EC2CFCEF33FFEE33FEED33FDED30E7EB
:1008D000EB020BA3EF2BFFEE3AFEED39FDD0E0FB70
:1008E00050130BBB0003020BCBED13FDEE13FEEF19
:0808F00013FFEC13FC020BA343
:1008F800EC4D6011E8497017ED33EC3304600DE4FA
:10090800FCFFFEFD22E933E8330470F8020BC11244
:100918000B8C58046009E4CC248150062850090245
:100928000BCB284003020BC8C0E0EB4A7044B980E7
:1009380006D0E0FB020BB7EF4E701CBD8008EBFF42
:10094800EAFEE9FD80EBE98DF0A4FEE5F00209E19D
:10095800E9CDF9EAFEEBFFEF89F0A4FCE5F0CE89DA
:10096800F0A42EFFE435F0CD89F0A42DFEE435F097
:100978008067EF4E7005BD80D780C3EF8BF0A4ACC5
:10098800F0EE8BF0A42CFCE435F0F8EF8AF0A42C00
:10099800E5F038FCE433CB8DF0A42CFCE5F03BF813
:1009A800EE8AF0A42CFCE5F038F8E433CF89F0A403
:1009B8002CFCE5F038CF3400CE89F0A42FFFE5F009
:1009C8003EFEE433C98DF0A42EFEE5F039CD8AF061
:1009D800A42FFFE5F03EFEE43DFD33D0E0FB5007D9
:1009E8000BBB000F020BCBEC2CFCEF33FFEE33FEFE
:0609F800ED33FD020BA32C
:1009FE00020BCBEC5D046005E859047003020BC1D9
:100A0E00120B8C580460F6EC4860F2EC7004FDFE9C
:100A1E00FF22C860DB2481C85009C39860025006CB
:100A2E00020BC89850CAF582E9294B4A7005AB8271
:100A3E00020BB775F0007C1A7880C3EF9BEE9AED2F
:100A4E0099400DC3EF9BFFEE9AFEED99FDE842F043
:100A5E00DC23ACF0D0E0FFD0E0FED0E0FDAB822096
:100A6E00E7101BEB60BAEC2CFCEF33FFEE33FEED20
:100A7E0033FD020BA3E803F830E705C0F075F00074
:100A8E00EF2FFFEE33FEED33FD40B830E7C280AA04
:100A9E0074F8CC6480CCC86480C8F58204604FC3FF
:100AAE00EB9FF5F0EA9E42F0E99D42F0E89C45F09E
:100ABE00603C501DE5825FFFE582D313CB5BCBF428
:100ACE002B5582FB50280ABA002409B90020088051
:100ADE001DE5825BFBE582D313CF5FCFF4C3132FEB
:100AEE005582FF50090EBE00050DBD00010CC3EB73
:100AFE009FF5F0EA9E42F0E99D42F0E89C45F060D9
:090B0E0007CC4820E701B3EC22FA
:100B170075F020800E75F010800575F0087D007E59
:100B2700007F003392D530D503120CAEEC33401062
:100B3700EF33FFEE33FEED33FDEC33FCD5F0ED2262
:0E0B4700E5F0247EA2D513CC92E7CDCEFF229E
:100B5500EDD2E7CD33EC3392D524814006E4FFFE98
:100B6500FDFC22FCE4CFCECDCC24E0501174FF80F7
:100B7500EDC3CC13CCCD13CDCE13CECF13CF047094
:070B8500F030D5DE020CAEDA
:100B8C00E9D2E7C933E833F892D5EDD2E7CD33ECAF
:070B9C0033FC5002B2D52228
:100BA300EC30E7100FBF000C0EBE00080DBD0004B3
:100BB3000BEB6014A2D5EB13FCED92E7FD2274FF5F
:100BC300FCFDFEFF22E480F8A2D574FF13FC7D80B8
:030BD300E480EFCC
:10110A00020CE2E493A3F8E493A34003F68001F20D
:10111A0008DFF48029E493A3F85407240CC8C333E6
:10112A00C4540F4420C8834004F456800146F6DFB5
:10113A00E4800B0102040810204080901440E47EF1
:10114A00019360BCA3FF543F30E509541FFEE493AA
:10115A00A360010ECF54C025E060A840B8E493A371
:10116A00FAE493A3F8E493A3C8C582C8CAC583CA9C
:10117A00F0A3C8C582C8CAC583CADFE9DEE780BE54
:011452000099
:100BD600BB010689828A83E0225002E722BBFE021D
:090BE600E32289828A83E4932250
:100BEF00BB010689828A83F0225002F722BBFE01E5
:020BFF00F322DF
:100C0100F8BB010DE58229F582E5833AF583E8F029
:100C1100225006E92582C8F622BBFE05E92582C8D5
:020C2100F222BD
:100C2300BC000BBE0029EF8DF084FFADF022E4CCB5
:100C3300F875F008EF2FFFEE33FEEC33FCEE9DEC7E
:100C4300984005FCEE9DFE0FD5F0E9E4CEFD22EDC4
:100C5300F8F5F0EE8420D21CFEADF075F008EF2F0E
:100C6300FFED33FD4007985006D5F0F222C398FDFF
:050C73000FD5F0EA229C
:100C7800C2D5EC30E709B2D5E4C39DFDE49CFCEE97
:100C880030E715B2D5E4C39FFFE49EFE120C23C3E0
:100C9800E49DFDE49CFC8003120C2330D507C3E4DB
:060CA8009FFFE49EFE2206
:0E0CAE00C3E49FFFE49EFEE49DFDE49CFC2257
:100CBC00E8600FECC313FCED13FDEE13FEEF13FF16
:030CCC00D8F1223A
:100CCF00E8600FEFC333FFEE33FEED33FDEC33FC83
:030CDF00D8F12227
:00000001FF
